:100000000C9465000C948D000C948D000C948D0064
:100010000C948D000C948D000C948D000C948D002C
:100020000C948D000C948D000C948D000C9418038E
:100030000C948D000C9416060C9448060C948D00BC
:100040000C948D000C948D000C948D000C948D00FC
:100050000C948D0000000002000000000000000071
:100060000504000700000000000000000000000080
:100070000000000001020408102040800102040872
:100080001020408001020408102040800102040872
:100090001020408002020202020202020404040450
:1000A0000404040403030303030303030101010124
:1000B0000101010100003B00380035003200000062
:1000C0003A00370034003100780611241FBECFE516
:1000D000D8E0DEBFCDBF10E0A0E6B0E0ECE8FEE087
:1000E00002C005900D92A437B107D9F721E0A4E72B
:1000F000B0E001C01D92AE32B207E1F710E0C5E6F4
:10010000D0E004C02197FE010E943E07C436D1070B
:10011000C9F70E94CF060C9444070C94000026E017
:1001200040E052EC61E070E081E990E00E94B005AF
:1001300061E081E10E946F0461E082E10E946F044E
:1001400061E080E10E946F0461E083E10E946F043E
:1001500060E081E10E94AB0460E082E10E94AB04B8
:1001600060E080E10E94AB0460E083E10E94AB04A8
:1001700060E070E08CE00E940E0460E070E08DE0D2
:100180000C940E04CF93DF93EB018F3F910519F090
:1001900014F08FEF90E0CF3FD10509F0C4F497FF42
:1001A0000EC060E081E10E94AB0461E082E10E9448
:1001B000AB0461E080E10E94AB0460E021C0D7FFA6
:1001C0000AC061E081E10E94AB0460E011C097FDCC
:1001D000E8CFCFEFD0E0BC018CE00E940E04BE015E
:1001E0008DE00E940E0460E081E10E94AB0461E0BA
:1001F00082E10E94AB0460E080E10E94AB0461E018
:1002000083E1DF91CF910C94AB046FEF70E08CE051
:100210000E940E046FEF70E08DE00E940E0460E01B
:1002200081E10E94AB0460E082E10E94AB0460E0E7
:1002300080E10E94AB0460E083E10C94AB04CF93B7
:10024000DF93C82FD0E0BE018CE00E940E04BE01F7
:100250008DE00E940E0460E081E10E94AB0461E049
:1002600082E10E94AB0461E080E10E94AB0460E0A7
:1002700083E1DF91CF910C94AB04CF93DF93C82F30
:10028000D0E0BE018CE00E940E04BE018DE00E9411
:100290000E0461E081E10E94AB0460E082E10E9413
:1002A000AB0460E080E10E94AB0461E083E1DF9198
:1002B000CF910C94AB04CF93DF93EC018CE10E94BF
:1002C000F603843F91409CF488E21C161D061CF442
:1002D0000E943D0102C00E941F0188E10E94F603B6
:1002E0008E3091405CF3DF91CF910C9405010E9418
:1002F000050165E070E080E090E0DF91CF910C9423
:1003000094032F923F924F925F926F927F928F92BF
:100310009F92AF92BF92CF92DF92EF92FF920F9394
:100320001F93CF93DF9300D000D0CDB7DEB70E94EC
:10033000620360938400709385008093860090939D
:1003400087000091800010918100209182003091FF
:1003500083006B017C01C01AD10AE20AF30A9701FB
:100360008601C0927C00D0927D00E0927E00F092E7
:100370007F000A3011052105310508F442C1609360
:1003800080007093810080938200909383008FE1BE
:100390000E94F6034C018EE10E94F6031C018DE1E0
:1003A0000E94F6036C018CE10E94F6033C018BE194
:1003B0000E94F6037C018AE10E94F6038C0189E128
:1003C0000E94F6039C838B8388E10E94F6039A8344
:1003D0008983A401092C000C660B770BC101032C47
:1003E000000CAA0BBB0B480F591F6A1F7B1FC601CD
:1003F0000D2C000CAA0BBB0B480F591F6A1F7B1F4B
:10040000C301770CAA0BBB0B2A013B01480E591EF6
:100410006A1E7B1EC7010F2C000CAA0BBB0B480EDB
:10042000591E6A1E7B1EC801012E000CAA0BBB0BB5
:10043000480E591E6A1E7B1E4B815C81CA01052E27
:10044000000CAA0BBB0B480E591E6A1E7B1E9401A2
:10045000ACE7BFEF0E9420074B015C019101AEEBBE
:10046000BFEF0E942007860E971EA81EB91E960198
:10047000AAEEBFEF0E942007860E971EA81EB91E87
:1004800026E130E0D7010E94370775016401C60EEE
:10049000D71EE81EF91E22E430E0D8010E9437077B
:1004A000C60ED71EE81EF91E24E830E0DA010E94CD
:1004B00037076C0D7D1D8E1D9F1DA30192010E94AB
:1004C0000107209378003093790040937A0050938D
:1004D0007B00B901660F771F8091740090917500C1
:1004E000A0917600B091770069017A01C81AD90A03
:1004F000EA0AFB0A94E0CC0CDD1C9A95E1F7CB01EB
:100500008C0D9D1D209374003093750040937600F0
:1005100050937700AC0197FF04C044275527481B30
:10052000590B493151054CF46AEF64039001659F02
:10053000300D112426503F4F02C029E630E0E981FA
:10054000FA81EB3FF105C4F00F900F900F900F90E0
:10055000DF91CF911F910F91FF90EF90DF90CF909F
:10056000BF90AF909F908F907F906F905F904F90D3
:100570003F902F900C940501FCEB4F16F2E05F06C4
:1005800061047104C4F40F900F900F900F90DF91ED
:10059000CF911F910F91FF90EF90DF90CF90BF9080
:1005A000AF909F908F907F906F905F904F903F9013
:1005B0002F900C945B0149E8441643E15406610412
:1005C000710414F6B901680F791FF901E81BF90BE2
:1005D000CF010F900F900F900F90DF91CF911F914F
:1005E0000F91FF90EF90DF90CF90BF90AF909F90D2
:1005F0008F907F906F905F904F903F902F900C94D2
:10060000C2000F900F900F900F90DF91CF911F912C
:100610000F91FF90EF90DF90CF90BF90AF909F90A1
:100620008F907F906F905F904F903F902F900895A4
:100630001F920F920FB60F9211242F933F938F9317
:100640009F93AF93BF938091890090918A00A0916E
:100650008B00B0918C003091880023E0230F2D3760
:1006600020F40196A11DB11D05C026E8230F0296B6
:10067000A11DB11D209388008093890090938A006A
:10068000A0938B00B0938C0080918D0090918E0090
:10069000A0918F00B09190000196A11DB11D809393
:1006A0008D0090938E00A0938F00B0939000BF9127
:1006B000AF919F918F913F912F910F900FBE0F900F
:1006C0001F9018952FB7F8946091890070918A0057
:1006D00080918B0090918C002FBF08953FB7F894C4
:1006E00080918D0090918E00A0918F00B09190002C
:1006F00022B708B600FE05C02F3F19F00196A11DD4
:10070000B11D3FBFBA2FA92F982F8827820F911DA7
:10071000A11DB11DBC01CD0142E0660F771F881FEE
:10072000991F4A95D1F708958F929F92AF92BF92E9
:10073000CF92DF92EF92FF926B017C010E946E03D9
:100740004B015C01C114D104E104F10401F10E94E8
:10075000DE060E946E03DC01CB0188199909AA0903
:10076000BB09883E9340A105B10560F321E0C21AA0
:10077000D108E108F10888EE880E83E0981EA11CDC
:10078000B11CC114D104E104F10419F7DBCFFF90CF
:10079000EF90DF90CF90BF90AF909F908F90089593
:1007A000789483B7826083BF83B7816083BF83B748
:1007B000806483BF83B7886083BF89B7816089BF46
:1007C0001EBC8EB582608EBD8EB581608EBD8FB52C
:1007D00081608FBD85B5846085BD85B5806485BD2C
:1007E000329A319A309A379A1AB80895883028F098
:1007F000883110F0885101C08FEF87702091600020
:1008000090E4299F90011124822B87B9369A36995A
:10081000FECF84B125B190E0922B08951F93CF9322
:10082000DF93182FEB0161E00E946F04209711F411
:1008300060E004C0CF3FD10539F461E0812FDF9142
:10084000CF911F910C94AB04E12FF0E0EC5AFF4FD5
:10085000E491E430A1F028F4E13061F0E23051F0AD
:100860001AC0E53091F0E730B1F485B5806285BDFE
:10087000C3BD15C083B7806283BFCCBF10C08FB526
:1008800080688FBDDBBDCABD0AC08FB580628FBDD9
:10089000D9BDC8BD04C0C038D1057CF6C9CFDF9131
:1008A000CF911F910895843059F028F4813099F048
:1008B000823089F00895853031F0873041F0089515
:1008C0008FB58F7702C08FB58F7D8FBD089585B5A9
:1008D0008F7D85BD089583B78F7D83BF0895CF93A6
:1008E000DF9390E0FC01EC58FF4F2491FC01EC56A3
:1008F000FF4F8491882361F190E0880F991FFC01DC
:10090000E254FF4FC591D491FC01EC54FF4FA591E7
:10091000B491611109C09FB7F89488812095822312
:100920008883EC912E230BC0623061F49FB7F8945A
:100930003881822F809583238883EC912E2B2C93F2
:100940009FBF06C08FB7F894E8812E2B28838FBFF6
:10095000DF91CF9108951F93CF93DF93282F30E03D
:10096000F901EC5AFF4F8491F901EC58FF4FD491F3
:10097000F901EC56FF4FC491CC23C9F0162F811119
:100980000E945304EC2FF0E0EE0FFF1FEC54FF4FDA
:10099000A591B4918FB7F894111105C09C91ED2FDA
:1009A000E095E92302C0EC91ED2BEC938FBFDF9132
:1009B000CF911F910895FC01918D228D892F90E098
:1009C000805C9F4F821B91098F7399270895FC01CA
:1009D000918D828D981731F0828DE80FF11D858DF4
:1009E00090E008958FEF9FEF0895FC01918D828D27
:1009F000981761F0828DDF01A80FB11D5D968C9173
:100A0000928D9F5F9F73928F90E008958FEF9FEF7D
:100A10000895FC01538D448D252F30E0842F90E004
:100A2000821B930B541710F0CF96089501970895E9
:100A30008EE696E0892B49F080E090E0892B29F042
:100A40000E946E0681110C9400000895FC01848DB3
:100A5000DF01A80FB11DA35ABF4F2C91848D90E0E8
:100A600001968F739927848FA689B7892C93A089C3
:100A7000B1898C9180648C93938D848D981306C07A
:100A80000288F389E02D80818F7D80830895CF9344
:100A9000DF93EC01888D8823C9F0EA89FB89808186
:100AA00085FD05C0A889B9898C9186FD0FC00FB658
:100AB00007FCF5CF808185FFF2CFA889B9898C9199
:100AC00085FFEDCFCE010E942605E7CFDF91CF91C4
:100AD0000895EF92FF920F931F93CF93DF93EC0152
:100AE00081E0888F9B8D8C8D981305C0E889F989EA
:100AF000808185FD24C0F62E0B8D10E00F5F1F4F07
:100B00000F731127E02E8C8DE8120CC00FB607FC76
:100B1000FACFE889F989808185FFF5CFCE010E945F
:100B20002605F1CF8B8DFE01E80FF11DE35AFF4F33
:100B3000F0820B8FEA89FB898081806207C0EE8991
:100B4000FF896083E889F98980818064808381E0FE
:100B500090E0DF91CF911F910F91FF90EF9008955A
:100B6000CF92DF92EF92FF921F93CF93DF93EC012E
:100B70006A017B01122FE889F98982E0808341159F
:100B8000514E61057105B1F060E079E08DE390E0D0
:100B9000A70196010E94DF06DA01C9010197A109A8
:100BA000B109B695A79597958795AC01411580E158
:100BB0005807A8F0E889F989108260E874E88EE1A6
:100BC00090E0A70196010E94DF06BA01A9014150F9
:100BD0005109610971097695679557954795EC8597
:100BE000FD855083EE85FF854083188E1068EC8963
:100BF000FD891083EA89FB89808180618083EA898D
:100C0000FB89808188608083EA89FB898081806894
:100C10008083EA89FB8980818F7D8083DF91CF91FA
:100C20001F91FF90EF90DF90CF9008951F920F9249
:100C30000FB60F9211242F938F939F93EF93FF93EF
:100C4000E091A100F091A2008081E091A700F091D5
:100C5000A80082FD12C090818091AA008F5F8F73DF
:100C60002091AB00821751F0E091AA00F0E0EF561E
:100C7000FF4F958F8093AA0001C08081FF91EF9173
:100C80009F918F912F910F900FBE0F901F901895ED
:100C90001F920F920FB60F9211242F933F934F93F1
:100CA0005F936F937F938F939F93AF93BF93EF93D4
:100CB000FF9381E990E00E942605FF91EF91BF919B
:100CC000AF919F918F917F916F915F914F913F91E4
:100CD0002F910F900FBE0F901F90189581E990E013
:100CE0000E94DB0421E0892B09F420E0822F089583
:100CF000E1E9F0E01382128288EE93E0A0E0B0E038
:100D000084839583A683B78385E690E0918380836F
:100D100080E490E09587848729E230E03787268752
:100D20002BE230E0318B208B2AE230E0338B228BB8
:100D3000958B848B8CE290E0978B868B118E128E34
:100D4000138E148E0895CF92DF92EF92FF920F933D
:100D50001F93CF93DF936C017A018B01C0E0D0E049
:100D6000CE15DF0589F0D8016D918D01D601ED9189
:100D7000FC910190F081E02DC6010995892B11F4B9
:100D80007E0102C02196ECCFC701DF91CF911F9168
:100D90000F91FF90EF90DF90CF90089508950E94FB
:100DA000D0030E94CE060E948F00C8E1D5E00E94C9
:100DB00081012097E1F30E941805F9CF0895A1E27F
:100DC0001A2EAA1BBB1BFD010DC0AA1FBB1FEE1FC5
:100DD000FF1FA217B307E407F50720F0A21BB30B10
:100DE000E40BF50B661F771F881F991F1A9469F78C
:100DF00060957095809590959B01AC01BD01CF01E8
:100E00000895052E97FB1EF400940E94180757FDC5
:100E100007D00E94DF0607FC03D04EF40C9418079D
:100E200050954095309521953F4F4F4F5F4F089516
:100E300090958095709561957F4F8F4F9F4F089546
:100E40000E942807332312F48A1B9B0B0C9439074A
:100E5000A29FB001B39FC001A39F700D811D1124FB
:100E6000911DB29F700D811D1124911D08950E9446
:100E70002807B7FF0895821B930B0895EE0FFF1FFD
:0C0E80000590F491E02D0994F894FFCF48
:100E8C0001000000006905A30609054705DB04F510
:040E9C0004E7040063
:107E000001C0B2C011248FE598E09EBF8DBF84B73A
:107E1000882361F0982F9A70923041F081FF02C060
:107E200097EF94BF282E80E0BAD0EAC085E08EBDDF
:107E300082E08BB988E18AB986E880BD80E189B9A2
:107E40008EE0ADD0B89A84E020E33CEF44E051E00E
:107E50003DBD2CBD48BF08B602FEFDCF98B39527A7
:107E600098BBA8955F9902C0815091F791D0813459
:107E700079F48ED0182F97D0123811F480E004C016
:107E800088E0113809F083E07FD080E17DD0EECF2B
:107E9000823419F484E18FD0F8CF853411F485E071
:107EA000FACF853541F474D0C82F72D0D82FCC0FBB
:107EB000DD1F79D0EACF863519F484E07CD0DECF9F
:107EC000843699F565D064D0182F62D0D82E012F52
:107ED00090E6E92EF12C57018FEFA81AB80A58D076
:107EE000F701808301507501B1F75DD0F5E4DF1231
:107EF00001C0FFCF50E040E063E0CE0135D07E010D
:107F000080E6C82ED12CF601419151916F0161E0BC
:107F1000C7012AD0F2E0EF0EF11C1250A1F750E099
:107F200040E065E0CE0120D0B0CF843771F430D08E
:107F30002FD0F82E2DD037D08E01F80185918F01EA
:107F400023D0FA94F110F9CFA0CF853739F42BD094
:107F50008EE11AD085E918D082E096CF813509F0FC
:107F6000A8CF88E01CD0A5CFFC010A0167BFE89527
:107F7000112407B600FCFDCF667029F0452B19F4DB
:107F800081E187BFE89508955D9BFECF8CB9089588
:107F90005F9BFECF5C9901C0A8958CB1089598E1D4
:107FA00091BD81BD0895F4DF803219F088E0F7DFDC
:107FB000FFCF84E1E9CFCF93C82FEADFC150E9F7C3
:047FC000CF91F1CF9D
:027FFE00000879
:0400000300007E007B
:00000001FF
